:100000007DC0000099C0000097C0000095C00000AE
:1000100093C0000091C000008FC000008DC00000A0
:100020008BC000000C941F0C87C0000085C000002E
:1000300083C0000081C000007FC000000C94F90B59
:100040007BC0000079C0000077C0000075C00000D0
:1000500073C0000071C000006FC000006DC00000E0
:100060006BC0000069C0000067C0000065C00000F0
:1000700063C0000061C000000C949908F1C7000043
:100080005BC0000059C0000057C000008601B203E9
:10009000D401ED010002BF0116021F022A029102E3
:1000A000C502B20335026F02520290038D028F0225
:1000B000A603A903AD03AB0318037503B80163647A
:1000C000696E6F70737578585B0025640025640055
:1000D0002564005363616C652073657420746F3A06
:1000E000202825662C256629207472616E736C6148
:1000F0007465202825662C256629000011241FBE62
:10010000CFEFD0E1DEBFCDBF11E0A0E0B1E0E2E390
:10011000FBE200E00BBF02C007900D92AA3DB107C1
:10012000D9F724E0AAEDB1E001C01D92A132B207D7
:10013000E1F71BD60C94971563CF1F93CF93DF93F2
:1001400000D000D01F92CDB7DEB710E00E94EE0CB9
:100150008F3F09F440C090910101913019F0923025
:1001600061F0F4CF9E012B5F3F4FAE014F5F5F4FB9
:10017000BE016D5F7F4F90D0182F143069F018F4D6
:10018000133099F0E3CF1630D9F01730F9F66981C2
:100190007A818B819C811CC08B819C8197FDD6CFFD
:1001A00069817A8177FDD2CF13C08B819C8197FDC5
:1001B000CDCF69817A8177FDC9CF0E944809C6CF2A
:1001C0001A8219821C821B8260E070E080E090E05D
:1001D0000E947309BBCF0F900F900F900F900F905C
:1001E000DF91CF911F9108958091E10195B1E82FA2
:1001F000F0E0E552FE4F90838F5F833019F08093DB
:10020000E10105C01092E10181E08093DA01809163
:10021000E101806687B9369A8091DA01882371F10D
:100220008091DC0124E0829FC001112483589F4FFC
:100230006AEF70E00E94C30ECB0103962091DF01AC
:10024000281729F08093DF010E94860CF8D2809154
:10025000DD0124E0829FC001112483589F4F6AEF83
:1002600070E00E94C30ECB0103962091E001281795
:1002700029F08093E0010E94AA0CE8C208958091C1
:10028000E101806687B987EC86B908951092130260
:1002900083E0809314027BC52F923F924F926F921E
:1002A0007F928F929F92AF92BF92CF92DF92EF9206
:1002B000FF920F931F93CF93DF93182FEB011A0137
:1002C00079018FEF9FEFFA0191838083998388836F
:1002D000F90110828DE0682E83E0782E94EEA92E2D
:1002E00091E0B92E2AEC822E20E0922EE0911302AA
:1002F0008E2FEE0F990BAA0BBB0B8931910508F0DD
:1003000031C2FC01EA5BFF4F0C94F20E1092000127
:100310001092E801143451F190F41D3009F422C216
:1003200030F487EF810F823008F41CC2B9C010325C
:1003300009F418C2113409F0B3C085E047C0103584
:1003400079F038F4193481F01C3409F0A9C086E042
:100350003DC0133539F0163509F0A2C088E036C02B
:1003600082E034C083E032C084E030C087E02EC039
:100370001B3309F0F7C1109213028FEF5DC01134E7
:1003800051F0133509F0EEC11092E70186E1809338
:10039000130284E106C01092E70186E18093130204
:1003A00087E180931502DEC11092E801143489F0D0
:1003B00020F4113481F481E006C0173409F458C0E8
:1003C000153549F484E08093000189E0809313029D
:1003D000C9C183E0F8CF8FEF61C0193479F028F4F8
:1003E000133409F05DC08DE017C0103529F01235C7
:1003F00009F056C081E110C08CE0E8CF80E10CC06C
:100400001E3481F0103539F0183409F049C01092CB
:10041000130287E011C08EE08093150286E180937D
:10042000130220C01092130286E006C01234C1F5F8
:100430008FE08093130288E08093000193C1193408
:1004400021F0143569F582E1C1CF86E18093130272
:1004500083E106C0133521F586E18093130285E11F
:10046000809315021092E7017DC1103309F0DCC0C2
:10047000F101118210821982188210927503109274
:100480007603109277031092780310927103109202
:100490007203109273031092740384E0809300013E
:1004A00088E194CFC0E0F4E0CF9F80011124F801EF
:1004B000E35BFC4F60817181828193810E947A0E9F
:1004C000035A1C4F0E94580DF80160837183828388
:1004D0009383CF5FC43039F7C093E60141C1C0E0D8
:1004E000F4E0CF9F80011124F801E35BFC4F6081B1
:1004F0007181828193810E947A0E03501D4F0E9468
:10050000580DF8016083718382839383CF5FC43079
:1005100039F7C093E6017CD423C18AE01FC18BE088
:100520001DC11D3009F41EC108F486C01C3229F01B
:100530001B3309F08BC08FEF11C1E091E80181E01E
:100540008E0F8093E8018DE093E0F0E0E35FFC4FD5
:1005500010821092E5011092E40124EE31E03F9305
:100560002F9320ED30E03F932F939F938F930E9422
:10057000930F1092E8018AE0809313020F900F907E
:100580000F900F900F900F90EDC01D3009F4EAC04E
:1005900028F487EF810F8230D0F543C01C3229F058
:1005A0001B3319F0103299F5DDC0E091E80181E0CC
:1005B0008E0F8093E8018DE093E0F0E0E35FFC4F65
:1005C00010821092E3011092E20122EE31E03F939B
:1005D0002F932DEC30E03F932F939F938F930E94A6
:1005E000930F1092E8018091E2019091E301F101F3
:1005F000918380838091E4019091E50199838883C0
:100600000F900F900F900F900F900F900AC0E091F5
:10061000E80181E08E0F8093E801F0E0E35FFC4F9A
:1006200010831C3209F4D1CE1B3309F499C09AC04F
:100630001D3009F497C030F487EF810F823008F045
:100640004AC090C01C3231F01B3321F0103209F047
:1006500042C088C0E091E80181E08E0F8093E801FC
:10066000F0E0E35FFC4F1082BF92AF929F928F92B7
:100670007F926F920E94930F1092E8014090E701E1
:10068000F4E04F9EC00111249C01235B3C4F6901A3
:100690006091E4017091E501072E000C880B990B25
:1006A0000E948B0DF601608371838283938381E0C6
:1006B000840D8093E7010F900F900F900F900F9093
:1006C0000F90843019F01B3309F04CC08091150253
:1006D000809313020BCEE091E80181E08E0F8093AE
:1006E000E801F0E0E35FFC4F2FC085E0809300015C
:1006F0008091E701833061F480E090E0A0EAB0E40B
:100700008093590390935A03A0935B03B0935C03C7
:100710008FEF9FEFF101918380839983888320C0BD
:1007200089E08093000180911402181305C0109293
:100730001302F701108216C08FEF9FEFF101918332
:10074000808399838883F70110830CC0109314026F
:1007500007C08CE003C08EE001C08DE080930001F3
:100760001092130280910001DF91CF911F910F91A0
:10077000FF90EF90DF90CF90BF90AF909F908F90C1
:100780007F906F904F903F902F90089520E130E040
:1007900097FF02C0969A01C09698979A880F991F62
:1007A000979821503109A1F7089580B38095817001
:1007B0000895EF92FF920F931F93CF93DF93959A33
:1007C0008EEF9FEFE3DF969AC8E2D2E0FE018091C0
:1007D000630080958F718193979A979882E0E833B0
:1007E000F807A9F7A6E1B2E08FEF9FEF40E050E0F5
:1007F000EE24E394F12C39912C91232799F0FA01FE
:1008000060E070E023238701062E01C0000F0A94E8
:10081000EAF7022309F0CF016F5F7F4F70966530D2
:10082000710589F73D934F5F5F4F4031510519F7CF
:10083000DF91CF911F910F91FF90EF90089581E08C
:1008400090E09093EA018093E90108951092EA0103
:100850001092E90108958E319105D9F024F48E307B
:10086000910539F408958E33910599F08E349105F0
:1008700081F020910201213061F497FD0AC080E1EE
:100880009EE00E94460C82E390E00E94740C0C945F
:10089000640C0895CF93DF938CDFEC0181329105D6
:1008A00009F4B7C00CF03CC08131910509F476C061
:1008B000B4F48130910509F4B5C04CF4892B09F0EA
:1008C000DEC01092EA011092E901FDD1D8C08D304E
:1008D000910509F48AC00E9709F48EC0D0C08D31FD
:1008E000910509F479C064F44B9709F0C8C083E01E
:1008F000809301018ED163E071E084E491E05BC0FC
:100900008E31910509F478C0809709F0B8C081D183
:1009100063E071E082E991E00E94400F8AD5AFC0A8
:100920008E33910509F468C0E4F487329105D9F15A
:1009300064F4869709F0A3C082E08093010169D135
:1009400063E071E086E291E036C08D329105F1F00E
:100950008E32910509F093C09093EA018093E901EA
:100960008EC08C34910551F14CF48234910509F418
:100970005FC08334910509F46EC081C08D34910548
:1009800021F18E34910509F437C079C081E090914E
:100990000201911180E08093020171C08AE191E02F
:1009A0000E94E30C6CC081E08093010132D163E0CE
:1009B00071E086E391E00E94400F61C0E9D429D143
:1009C00063E071E082E591E0F6CF01D522D163E0EA
:1009D00071E08FE591E0EFCF1CD163E071E08EE62E
:1009E00091E00E94400F0DD54AC02CD412D163E093
:1009F00071E081E891E0DFCF69E170E0CE01A0D441
:100A0000E6E1F2E086E292E011928E179F07E1F7AD
:100A100036C0FFD063E071E08EE991E00E94400FA4
:100A2000E6D42DC09093EA018093E90166D127C0F6
:100A30008091E9019091EA01892B21F486D70197F1
:100A400089D7F7D08091E9019091EA010197B9F433
:100A500058D7019712C08091E9019091EA01892B42
:100A600021F473D7019676D7E4D08091E901909173
:100A7000EA01019721F445D7019648D7FFD0CE016E
:100A8000EADECE01DF91CF9108959798959A81B3D0
:100A9000806E81BB909AE4E6F0E08081807E808366
:100AA000E5E6F0E080818F618083089583B1806FF7
:100AB00083B982B18F7082B9E2E6F0E08081806410
:100AC000808380818068808380818068808391B109
:100AD00080818F7780838081806880838081806837
:100AE000808321B122952F70892F807F90819F77FD
:100AF000908390819F7B908392B1906F92B9822B6B
:100B00000895E2E6F0E080818F7E80830895CF93A0
:100B1000DF93C0E1D7E2CADF87FF05C02197D9F78D
:100B20008FEF9FEF02C080E090E0DF91CF910895BA
:100B300093B19F70807F892B83B9E2E6F0E08081DA
:100B40008068808380818F7780830895CF93C82FBA
:100B5000EFDF8C2F8295807FEBDFCF91D8CF803174
:100B600008F080E08093EB01883008F0805E8058C8
:100B7000EDCFCF939091EB019031D0F4C82F8091BD
:100B800062008062809362008C2FD2DF8C2F82956E
:100B9000807FCEDF809162008F7D80936200B7DF1F
:100BA0008091EB018F5F8093EB01883009F4D7DFF0
:100BB00081E090E0CF910895E2E6F0E080818F71CE
:100BC0008083E1E6F0E08081806F808382B1806F76
:100BD00082B98FE090E088D680E3AADF85E090E0DC
:100BE00083D680E3A5DF84E690E070D680E3A0DFC3
:100BF00084E690E06BD680E29BDF84E690E066D6E8
:100C000088E2A4DF8CE0A2DF81E0A0DF1092EB019C
:100C100078CF81E09BDF1092EB01089596D69093F8
:100C20003902809338026DD690933B0280933A024A
:100C30000895CF93DF9389D6EC018091380290918B
:100C40003902C817D907B9F0E4DFDF93CF9388EAF8
:100C500091E09F938F9383E091E09F938F930E9405
:100C6000310FD0933902C09338020F900F900F903C
:100C70000F900F900F90DF91CF910895CF93DF9356
:100C800040D6EC0180913A0290913B02C817D907F7
:100C9000B9F0BFDFDF93CF9385EB91E09F938F9304
:100CA00083E091E09F938F930E94310FD0933B029A
:100CB000C0933A020F900F900F900F900F900F90EB
:100CC000DF91CF910895CF93DF933FD6EC01A1DF61
:100CD000DF93CF9388EA91E09F938F9383E091E035
:100CE0009F938F930E94310F0F900F900F900F9052
:100CF0000F900F90DF91CF910895CF93DF9301D69E
:100D0000EC0187DFDF93CF9385EB91E09F938F9387
:100D100083E091E09F938F930E94310F0F900F908B
:100D20000F900F900F900F90DF91CF9108952ED6D6
:100D3000ACDE42DF789453D655D5A8DAA0DA7894A1
:100D400053DA84E690E0D0D54FDA84E690E0CCD553
:100D50004BDA84E690E0C8D561DF5BDF63E071E0E9
:100D60008FEB91E00E94400F59CFE1DFE6D9A895C3
:100D700080911A04882321F010921A0435DA8ADD52
:100D800080911904882391F310921904EFCF80E029
:100D900090E0A0E8BFE38093EC019093ED01A09375
:100DA000EE01B093EF018093F0019093F101A093D5
:100DB000F201B093F301EDE5F3E0108211821282AB
:100DC000138214821582168217824CE155E260E08C
:100DD00070E0408751876287738788E59BE1A0E0D8
:100DE000B0E084879587A687B787EDEFF2E01082A1
:100DF000118212821382448355836683778310861F
:100E000011861286138684879587A687B7870895EB
:100E10004F925F926F927F928F929F92AF92BF920A
:100E2000CF92DF92EF92FF92CF93DF93CDB7DEB7F1
:100E300028970FB6F894DEBF0FBECDBFEDE5F3E007
:100E400084849584A684B78484819581A681B781A2
:100E5000881A990AAA0ABB0AADEFB2E02D913D911A
:100E60004D915C9129833A834B835C8320910503E8
:100E70003091060340910703509108032D833E8370
:100E80004F835887C0900903D0900A03E0900B036A
:100E9000F0900C03C21AD30AE40AF50A8085918502
:100EA000A285B3854080518062807380BC01CD01F2
:100EB00064197509860997092ED62B013C0180918A
:100EC000010390910203A0910303B0910403BC01BC
:100ED000CD0129813A814B815C81621B730B840BAC
:100EE000950B19D69B01AC01C301B20179D5462EF1
:100EF000772E682E592E862F972DA62DB52D8093EF
:100F0000F0019093F101A093F201B093F301C501B8
:100F1000B40101D64B015C01C701B601FCD59B01B0
:100F2000AC01C501B4015CD5F62EE72ED82EC92E32
:100F3000A7019601852F942FA32FB22F8093EC0148
:100F40009093ED01A093EE01B093EF016D817E814E
:100F50008F81988590958095709561957F4F8F4F83
:100F60009F4FD9D5D701F6012B2F3A2F4F2F5E2F48
:100F70005ED69F938F937F936F9369817A818B81E4
:100F80009C8190958095709561957F4F8F4F9F4F75
:100F9000C2D5D301242D3B2F4A2F552D48D69F93E0
:100FA0008F937F936F93CF92DF92EF92FF925F9236
:100FB0006F927F924F9283ED90E09F938F938CD7A7
:100FC0000FB6F894DEBF0FBECDBF28960FB6F894CB
:100FD000DEBF0FBECDBFDF91CF91FF90EF90DF90CE
:100FE000CF90BF90AF909F908F907F906F905F90C9
:100FF0004F9008959091F6018091F701891708F4B8
:101000008058891B0895EBE9F0E080818D7F808313
:101010001092980087E680939900EAE9F0E08081D9
:101020008061808380818860808380818068808304
:101030000895E091F50191E09E0F903409F490E05D
:101040002091F4012917E1F3F0E0E45CFD4F808387
:101050009093F50180919A00806280939A000895A0
:101060001F920F920FB60F9211240BB60F928F930F
:101070009F93EF93FF938091F40190911101913030
:1010800029F493E190939C0093E008C090911101A2
:10109000923039F491E190939C0094E09093110187
:1010A0000DC0E82FF0E0E45CFD4F908190939C0030
:1010B0008F5F803409F480E08093F4019091F50112
:1010C000891305C080919A008F7D80939A00FF91CB
:1010D000EF919F918F910F900BBE0F900FBE0F90CD
:1010E0001F901895CF938091F6019091F701891781
:1010F000D9F0E82FF0E0E458FD4FC0818F5F8038D1
:1011000009F480E08093F60175DF803278F48091F5
:101110001101833059F482E08093110180919A008B
:10112000806280939A0002C08FEF01C08C2FCF9114
:1011300008951F920F920FB60F9211240BB60F92C3
:101140002F933F934F935F936F937F938F939F93CF
:10115000AF93BF93EF93FF9390919C00E091F701C1
:1011600081E08E0F803809F480E02091F60182172B
:10117000A9F0F0E0E458FD4F90838093F7013ADF47
:10118000803660F080911101843041F481E08093D9
:10119000110180919A00806280939A00FF91EF91F3
:1011A000BF91AF919F918F917F916F915F914F917F
:1011B0003F912F910F900BBE0F900FBE0F901F907D
:1011C00018959091F9012091F801921B903210F03E
:1011D000A895F7CFE091F901EF7195E0E99FF00153
:1011E0001124E758FC4F8083CF0108950F931F937C
:1011F000CF93DF938C01EB0180E0E3DF20911601B8
:1012000030911701200F311F609114017091150169
:10121000A901535841305A4F80F46C0F7D1F61363D
:10122000F9E07F0750F4FC013283218374836383E8
:101230008091F9018F5F8093F901DF91CF911F9128
:101240000F9108959091F9018091F80198131CC0B5
:10125000809116019091170197FD16C0809114019D
:101260009091150197FD10C0809116019091170182
:1012700090930E0280930D028091140190911501BC
:1012800090930C0280930B0208951BBA15BA08952F
:101290000F931F93CF93DF938C01EB0181E091DFDC
:1012A00020910D0230910E02200F311F60910B0230
:1012B00070910C0221304DE7340780F46C0F7D1FD4
:1012C0006136E9E07E0750F4FC01328321837483A8
:1012D00063838091F9018F5F8093F901DF91CF9152
:1012E0001F910F9108950F931F93CF93DF938C015C
:1012F000EB0180E066DF20910D0230910E02200F9D
:10130000311F60910B0270910C02A90146505F4F92
:101310004B3F5D4780F46C0F7D1F6136F9E07F071E
:1013200050F4FC0132832183748363838091F9013B
:101330008F5F8093F901DF91CF911F910F910895F5
:101340009C01CB015091F9014091F80154131FC049
:101350002E313105C9F024F42E30310589F008957D
:101360002E33310521F02E34310521F0089560E04F
:1013700070E00CC060E070E091958195910906C025
:1013800066277727681B790B80E090E02FCF0895C0
:10139000809114019091150197FD18C0809116015C
:1013A0009091170197FF12C086E09FEF909317016D
:1013B00080931601609114017091150180E090E016
:1013C00092DF60E070E080E090E08DCF0895609162
:1013D0000B0270910C0220910D0230910E0271955A
:1013E0006195710986E09FEF821B930B7CCF1A9B5E
:1013F00006C082E390E09093FD018093FC011A986F
:1014000008959091F9018091F801981311C0EFDFD0
:101410008CE99FEF909315018093140186E09FEF74
:1014200090931701809316011092FB011092FA011C
:10143000089583B1209116013091170137FD0FC037
:10144000209114013091150137FD09C082FD07C0BC
:101450001A9A82E390E09093FD018093FC01089535
:10146000CF93DF939091F9018091F801981709F4D7
:10147000B8C0E091F80181E08E0F8093F801EF7120
:10148000CE2FD0E025E0E29FF0011124E758FC4F79
:101490008081823009F4A2C038F0833009F0A1C005
:1014A0008181928157D29DC0811102C0A0DF01C00D
:1014B000C0DF85E08C9FF0018D9FF00D1124E7586F
:1014C000FC4F41815281809116019091170148177C
:1014D000590751F4809114019091150123813481B1
:1014E0002817390709F47DC085E08C9FF0018D9F96
:1014F000F00D1124E758FC4F63817481809116012F
:1015000090911701841795077CF481E090E0909307
:1015100007028093060280911601909117019A01AB
:10152000281B390BC9010CC08FEF9FEF9093070266
:10153000809306028091160190911701841B950BF0
:101540002091140130911501261737077CF421E012
:1015500030E0309309022093080220911401309169
:101560001501AB01421B530B9A010CC02FEF3FEF4B
:101570003093090220930802209114013091150143
:10158000261B370B281739075CF410920A02909338
:1015900001028093000230930302209302020BC0E9
:1015A00041E040930A02309301022093000290939D
:1015B0000302809302021092FF011092FE018091BB
:1015C00000029091010297FD019695958795909361
:1015D00005028093040284E090E005C0818192813D
:1015E00095D183E090E0DF91CF9108958091FC0147
:1015F0009091FD01009731F001979093FD01809348
:10160000FC010895D2D8882361F083E090E09093A4
:10161000FB018093FA018091F9018093F801E7DEE4
:1016200034DE8091FA019091FB018230910551F1F5
:1016300030F4009759F08130910589F0A9C08330CA
:101640009105D9F1049709F440C0A2C0809114011A
:101650009091150197FD1EC081E090E095C0909398
:10166000FD018093FC01819B0AC08091140190913F
:1016700015010197909315018093140189C082E0B0
:1016800090E082C084E090E09093FD018093FC01A3
:10169000819906C080911401909115010196EACFBD
:1016A000109215011092140110920C0210920B026C
:1016B00010920E0210920D0265C0D2DE9093FB01D3
:1016C0008093FA01039709F463C02091FE013091E1
:1016D000FF014091000250910102241735070CF0E0
:1016E00051C02F5F3F4F3093FF012093FE012091A7
:1016F0000402309105028091020290910302B90127
:10170000681B790BCB01709305026093040277FF8D
:1017100015C0840F951F90930502809304022091B9
:101720001601309117018091060290910702820FF5
:10173000931F909317018093160104C080910A02B1
:10174000882379F0209114013091150180910802CD
:1017500090910902820F931F9093150180931401B9
:101760000EC02091160130911701809106029091D0
:101770000702820F931F909317018093160184E054
:1017800090E002C083E090E09093FB018093FA0127
:101790008091FA019091FB01039749F48091120125
:1017A00090911301009711F0019717C06ECDE09151
:1017B0001601F0911701EF70FF27E753FE4F80816C
:1017C0008BBBE0911401F0911501EF70FF27E753F7
:1017D000FE4F808185BB80E395E790931301809352
:1017E0001201089552DD8FEF8ABB84BB129A919A41
:1017F00008CE1F920F920FB60F9211248F938091F3
:101800001801815019F08093180106C08AE0809376
:10181000180181E080931A0480911901815019F018
:101820008093190106C08AEF8093190181E08093AB
:1018300019048F910F900FBE0F901F9018951F9253
:101840000F920FB60F9211240BB60F922F933F9366
:101850004F935F936F937F938F939F93AF93BF93B8
:10186000EF93FF93C3DEFF91EF91BF91AF919F91F3
:101870008F917F916F915F914F913F912F910F9039
:101880000BBE0F900FBE0F901F9018959C01139ADE
:10189000BC0197FF02C06F5F7F4F75956795CB01C5
:1018A000770FAA0BBB0BBC01CD017E5E85489F4F15
:1018B000032E000C440B550B79D221503109309383
:1018C00087002093860008951398089522B797FD06
:1018D0000F9634E0959587953A95E1F7820F92B788
:1018E000981B97FDFCCF0895CF93DF93EC012097D1
:1018F00029F088EE93E0EADF2197F9CFDF91CF91CD
:10190000089580910F029091100208958A309105F8
:1019100034F4181619062CF081E090E002C089E03A
:1019200090E09093100280930F0247EEBC014603B3
:101930009001479F300D112485B5887F85BD2250C9
:1019400023BD85B5846085BD99C9809111029091B0
:10195000120208958B30910534F4181619062CF0F4
:1019600081E090E002C08AE090E0909312028093C0
:1019700011024FE2489F9001499F300D112484EFDE
:1019800091E0821B930B99BD88BD53C98EE083BF44
:1019900089EF81BF82E087BFBE9A83E28FBD89E075
:1019A0008EBD8FEF93E099BD88BD8CE085BD83E649
:1019B00083BD87B7806887BF83E480938B0089E10C
:1019C00080938A000895CF93DF93EC018991882357
:1019D00011F02FDBFBCFDF91CF91089583CB13CB99
:1019E0000CD0EBC0E3D040F0DAD030F021F45F3F10
:1019F00019F0CCC0511115C1CFC0F0D098F3992384
:101A0000C9F35523B1F3951B550BBB27AA276217C2
:101A10007307840738F09F5F5F4F220F331F441F07
:101A2000AA1FA9F333D00E2E3AF0E0E830D091503F
:101A30005040E695001CCAF729D0FE2F27D0660F2C
:101A4000771F881FBB1F261737074807AB07B0E86B
:101A500009F0BB0B802DBF01FF2793585F4F2AF081
:101A60009E3F510568F092C0DCC05F3FECF3983EAA
:101A7000DCF3869577956795B795F7959F5FC9F7DE
:101A8000880F911D9695879597F90895E1E0660F67
:101A9000771F881FBB1F621773078407BA0720F0E0
:101AA000621B730B840BBA0BEE1F88F7E095089549
:101AB00004D06894B111B5C0089598D088F09F57AC
:101AC00090F0B92F9927B751A0F0D1F0660F771F8A
:101AD000881F991F1AF0BA95C9F712C0B13081F06A
:101AE0009FD0B1E008959CC0672F782F8827B85FFA
:101AF00039F0B93FCCF3869577956795B395D9F7CB
:101B00003EF490958095709561957F4F8F4F9F4FD4
:101B10000895E89409C097FB3EF4909580957095E0
:101B200061957F4F8F4F9F4F9923A9F0F92F96E929
:101B3000BB279395F695879577956795B795F1119E
:101B4000F8CFFAF4BB0F11F460FF1BC06F5F7F4F3B
:101B50008F4F9F4F16C0882311F096E911C077234D
:101B600021F09EE8872F762F05C0662371F096E856
:101B7000862F70E060E02AF09A95660F771F881F25
:101B8000DAF7880F9695879597F9089597F99F67E3
:101B900080E870E060E008959FEF80EC08950024F5
:101BA0000A941616170618060906089500240A94C2
:101BB00012161306140605060895092E0394000C48
:101BC00011F4882352F0BB0F40F4BF2B11F460FFD7
:101BD00004C06F5F7F4F8F4F9F4F089557FD905800
:101BE000440F551F59F05F3F71F04795880F97FBE1
:101BF000991F61F09F3F79F087950895121613069B
:101C00001406551FF2CF4695F1DF08C016161706C9
:101C10001806991FF1CF86957105610508940895FE
:101C2000E894BB2766277727CB0197F908950BD057
:101C3000C4CFB5DF28F0BADF18F0952309F0A6CF9E
:101C4000ABCF1124EECFCADFA0F3959FD1F3950F50
:101C500050E0551F629FF001729FBB27F00DB11D30
:101C6000639FAA27F00DB11DAA1F649F6627B00DC0
:101C7000A11D661F829F2227B00DA11D621F739FA9
:101C8000B00DA11D621F839FA00D611D221F749FB7
:101C90003327A00D611D231F849F600D211D822FFE
:101CA000762F6A2F11249F5750408AF0E1F0882345
:101CB0004AF0EE0FFF1FBB1F661F771F881F915052
:101CC0005040A9F79E3F510570F060CFAACF5F3F0B
:101CD000ECF3983EDCF3869577956795B795F79585
:101CE000E7959F5FC1F7FE2B880F911D969587950D
:101CF00097F908957BDFE0F09E37D8F09639B8F475
:101D00009E3848F4672F782F8827985FF9CF8695FB
:101D10007795679593959539D0F3B62FB1706B0F82
:101D2000711D811D20F4879577956795939502C065
:101D30001CC077CF882371F4772321F09850872B2C
:101D4000762F07C0662311F499270DC09051862B7A
:101D500070E060E02AF09A95660F771F881FDAF727
:101D6000880F9695879597F908959F3F31F0915088
:101D700020F4879577956795B795880F911D96956F
:101D8000879597F9089597FB072E16F4009406D0CF
:101D900077FD08D030D007FC05D03EF490958195B2
:101DA0009F4F0895709561957F4F0895052E97FB7D
:101DB00016F400940FD057FD05D031D007FC02D0A7
:101DC00046F408C050954095309521953F4F4F4FB0
:101DD0005F4F089590958095709561957F4F8F4FD7
:101DE0009F4F0895EE0FFF1F0024001C0BBE0790AD
:101DF000F691E02D0994AA1BBB1B51E107C0AA1F55
:101E0000BB1FA617B70710F0A61BB70B881F991F9B
:101E10005A95A9F780959095BC01CD010895A1E24E
:101E20001A2EAA1BBB1BFD010DC0AA1FBB1FEE1F54
:101E3000FF1FA217B307E407F50720F0A21BB30B9F
:101E4000E40BF50B661F771F881F991F1A9469F71B
:101E500060957095809590959B01AC01BD01CF0177
:101E60000895CF93DF93CDB7DEB7AE01475F5F4FE5
:101E70006F8178858D819E8177D0DF91CF91089594
:101E8000EF92FF920F931F93CF93DF93DB01139693
:101E90002C9121FF18C08B017C01D0E0C0E0F7013C
:101EA00081917F01882361F0D8011896ED91FC9112
:101EB0001997B8010995892B91F3DFEFCFEFEFCF99
:101EC0008D2F9C2F02C08FEF9FEFDF91CF911F913D
:101ED0000F91FF90EF9008950F931F93CF93DF938F
:101EE000CDB7DEB7AE01495F5F4FDA016D917D91ED
:101EF000AD010BE114E0F80182819381DC011396BE
:101F00002C911397286013962C932ED0D8011296FB
:101F1000ED91FC9113972381277F2383DF91CF914C
:101F20001F910F910895CF93DF93CDB7DEB72E9712
:101F30000FB6F894DEBF0FBECDBF8DE08C838B89CA
:101F40009C899A838983AE01495E5F4F6D897E8942
:101F5000CE010196B8D32E960FB6F894DEBF0FBE11
:101F6000CDBFDF91CF9108952F923F924F925F9214
:101F70006F927F928F929F92AF92BF92CF92DF9299
:101F8000EF92FF920F931F93CF93DF93CDB7DEB7FE
:101F90002B970FB6F894DEBF0FBECDBF6C017B014F
:101FA0008A01FC0117821682838181FFBFC1CE01A5
:101FB00001963C01F6019381F70193FD859193FF12
:101FC00081917F01882309F4ADC1853239F493FDF5
:101FD000859193FF81917F01853221F4B60190E0D4
:101FE000F0D4E8CF912C212C312CFFE1F315D8F05F
:101FF0008B3279F038F4803279F08332A1F4232DDA
:1020000020611DC08D3261F0803369F4232D216081
:1020100016C0832D8260382EE32DE4603E2E2AC048
:10202000F32DF8601DC037FC2DC020ED280F2A309D
:1020300040F08E32B9F436FC75C1232D2064322E67
:1020400019C036FE06C08AE0989E200D1124922EFB
:1020500011C0EAE02E9E200D1124222EF32DF062F5
:102060003F2E08C08C3621F4832D8068382E02C0A4
:10207000883641F4F70193FD859193FF81917F01AB
:102080008111B3CF982F9F7D9554933028F40C5F26
:102090001F4F9FE399830DC0833631F0833771F072
:1020A000833509F055C020C0F801808189830E5F17
:1020B0001F4F88248394912C530112C02801F2E011
:1020C0004F0E511CF801A080B18036FE03C0692D6F
:1020D00070E002C06FEF7FEFC5012AD44C0182018E
:1020E000F32DFF773F2E15C0280122E0420E511C30
:1020F000F801A080B18036FE03C0692D70E002C0F7
:102100006FEF7FEFC50109D44C01F32DF0683F2E2E
:10211000820133FC19C0822D90E088169906A0F444
:10212000B60180E290E04DD42A94F5CFF50137FC5A
:10213000859137FE81915F01B60190E042D4211074
:102140002A9421E0821A91088114910479F7E1C060
:10215000843611F0893639F5F80137FE07C0608101
:102160007181828193810C5F1F4F08C060817181F2
:10217000072E000C880B990B0E5F1F4FF32DFF7677
:102180003F2E97FF09C090958095709561957F4F80
:102190008F4F9F4FF0683F2E2AE030E0A30166D4B6
:1021A000882E861844C0853731F4232D2F7EB22E19
:1021B0002AE030E025C0932D997FB92E8F36C1F0EB
:1021C00018F4883579F0AEC0803719F0883721F0DF
:1021D000A9C0E92FE061BE2EB4FE0DC0FB2DF46056
:1021E000BF2E09C034FE0AC0292F2660B22E06C0B9
:1021F00028E030E005C020E130E002C020E132E01C
:10220000F801B7FE07C060817181828193810C5F04
:102210001F4F06C06081718180E090E00E5F1F4F0C
:10222000A30124D4882E8618FB2DFF773F2E36FE7F
:102230000DC0232D2E7FA22E891458F434FE0BC01E
:1022400032FC09C0832D8E7EA82E05C0B82CA32C8D
:1022500003C0B82C01C0B92CA4FE0FC0FE01E80DCC
:10226000F11D8081803321F49A2D997EA92E09C019
:10227000A2FE06C0B394B39404C08A2D867809F0F8
:10228000B394A3FC10C0A0FE06C0B21480F4280CC6
:10229000922C9B180DC0B21458F4B60180E290E065
:1022A00090D3B394F8CFB21418F42B1802C0982C22
:1022B000212CA4FE0FC0B60180E390E082D3A2FEE1
:1022C00016C0A1FC03C088E790E002C088E590E05A
:1022D000B6010CC08A2D867851F0A1FE02C08BE2B7
:1022E00001C080E2A7FC8DE2B60190E06AD38914B8
:1022F00030F4B60180E390E064D39A94F8CF8A94E6
:10230000F301E80DF11D8081B60190E05AD38110F0
:10231000F6CF222009F44ECEB60180E290E051D3F0
:102320002A94F7CFF6018681978102C08FEF9FEF45
:102330002B960FB6F894DEBF0FBECDBFDF91CF91C5
:102340001F910F91FF90EF90DF90CF90BF90AF90D3
:102350009F908F907F906F905F904F903F902F90C5
:10236000089520FD09C0FC0123FD05C022FF02C025
:102370007383628351834083089544FD17C046FDF3
:1023800017C0AB01BC01DA01FB01AA0FBB1FEE1F96
:10239000FF1F1094D1F74A0F5B1F6E1F7F1FCB01E9
:1023A000BA01660F771F881F991F09C033E001C06B
:1023B00034E0660F771F881F991F3150D1F7620FE5
:1023C000711D811D911D08950F931F93CF93DF936E
:1023D0008C01C801B8D2EC0197FD06C08BD2892BC5
:1023E000C1F7B801CE0129D3CE01DF91CF911F9162
:1023F0000F9108958F929F92AF92BF92EF92FF92AA
:102400000F931F93CF93DF938C01D62F7A01B22EB7
:102410009AD29C0133272B32310531F02D32310510
:1024200059F48B2D8068B82ED15011F480E061C032
:10243000C80189D297FDFACFCB2DCD7F2B2D2073EC
:10244000F9F48033E9F4AA24AA94AD0E09F43EC04D
:10245000C80179D297FD3AC09C012F7D33272835DA
:10246000310541F4C264D25089F1C8016CD297FFA2
:1024700007C02CC0B6FE02C0C26001C0C261DA2D26
:10248000812C912C540120ED280F283078F0C4FFC6
:1024900003C0B801D2D217C02A3040F0C6FFF9CF2E
:1024A0002F7D3FEE320F3630A0F727504C2FC5015D
:1024B000B40163DF4B015C01C260D15051F0C8012F
:1024C00042D297FFE0CFC1FD04C0B0CF812C912C48
:1024D0005401C7FF08C0B094A09490948094811CCC
:1024E000911CA11CB11C2C2FB501A401C70139DF1F
:1024F00081E0DF91CF911F910F91FF90EF90BF90FE
:10250000AF909F908F9008955F926F927F928F927D
:102510009F92AF92BF92CF92DF92EF92FF920F9372
:102520001F93CF93DF93CDB7DEB7A0970FB6F89484
:10253000DEBF0FBECDBF5C01962E7A01F9018E0180
:102540000F5F1F4F680180E2D8011D928A95E9F75D
:10255000D50113968C9080E090E0612C712C30E0D6
:1025600061E070E083FC259183FE21918F01522E62
:10257000211103C080E090E090C02E3511F4009747
:1025800051F1432F50E0481759073CF42D3559F1CC
:102590002D3219F4772009F103C0772009F468C0BF
:1025A000452D469546954695D601A40FB11D452D5E
:1025B00047708B0102C0000F111F4A95E2F7A80176
:1025C0005C91452B4C93651459F0561410F45394B8
:1025D000E7CF5A94E5CF31E004C07724739401C06B
:1025E000712C0196BFCF772019F08E8180628E8387
:1025F000311103C08824839417C0F6019E012F5D1A
:102600003F4F8081809581932E173F07D1F7F2CFFE
:10261000E114F10429F0D7018C93F70131967F0181
:102620009A94812C9920E9F0C5018DD197FD17C0AE
:10263000FC01FF2723E0F595E7952A95E1F7EC0DDE
:10264000FD1D208130E0AC014770552702C0359553
:1026500027954A95E2F720FDDBCFB501EED1811039
:1026600089CFE114F10411F0D7011C92C80115C003
:10267000422F469546954695D601A40FB11D422F8F
:1026800047708B0102C0000F111F4A95E2F7A801A5
:102690005C91452B4C93622EA4CFA0960FB6F89474
:1026A000DEBF0FBECDBFDF91CF911F910F91FF9085
:1026B000EF90DF90CF90BF90AF909F908F907F90E2
:1026C0006F905F9008955F926F927F928F929F922A
:1026D000AF92BF92CF92DF92EF92FF920F931F9330
:1026E000CF93DF936C01EB015A01FC011782168234
:1026F000512CF601E380FE01E3FC8591E3FE81911C
:10270000182FEF01882309F4E0C090E0F3D0892B63
:1027100019F0C60159DEEDCF153241F4FE01E3FC9C
:102720001591E3FE1191EF01153271F4C6010BD141
:1027300097FDC9C0412F50E09C013327241735076E
:10274000C1F2B6017AD1C1C01A3239F4E3FC159155
:10275000E3FE1191EF0101E001C000E0F12C20ED5A
:10276000210F2A3078F402606F2D70E080E090E055
:1027700040E203DEF62EFE01E3FC1591E3FE11912B
:10278000EF01EDCF01FF03C0F11003C09EC0FF2495
:10279000FA94183619F01C3651F010C0FE01E3FC13
:1027A0001591E3FE1191EF01183641F408600460C1
:1027B000FE01E3FC1591E3FE1191EF01112309F4F1
:1027C00084C0612F70E08EEB90E09CD0892B09F4DF
:1027D0007CC000FD07C0F50180809180C501029694
:1027E0005C0102C0812C912C1E3649F4F601468111
:1027F000578160E070E0202FC401B3DD7ACF13363B
:10280000A1F401FD02C0FF24F394C6019CD097FD02
:102810005AC08114910429F0F4018083C401019607
:102820004C01FA94F110F1CF4AC01B3551F49E01CE
:10283000A4016F2DC60168DEEC01892B09F03FC0B1
:1028400039C0C601C1DD97FD3EC01F3649F128F4ED
:10285000143621F1193639F125C0133771F01537C7
:10286000E9F020C08114910429F0F4016082C401D0
:1028700001964C01FA94FF2059F0C60164D03C0146
:1028800097FD06C037D0892B69F3B601C301D5D0B7
:1028900081149104A1F0F401108211C0006203C000
:1028A000006101C00064202FA4016F2DC601A2DDCC
:1028B000811105C0F6018381807329F406C000FDF3
:1028C00018CF539416CF552019F0852D90E002C0F3
:1028D0008FEF9FEFDF91CF911F910F91FF90EF90BE
:1028E000DF90CF90BF90AF909F908F907F906F9030
:1028F0005F900895911118C1803219F08950855068
:10290000D0F70895FC010590061621F00020D9F7B4
:10291000C00108953197CF010895FC0105906150E1
:1029200070400110D8F7809590958E0F9F1F0895E5
:10293000FC016150704001900110D8F7809590958E
:102940008E0F9F1F0895CF93DF93EC012B8120FF03
:1029500033C026FF0AC02F7B2B838E819F81019677
:102960009F838E838A8190E029C022FF0FC0E88177
:10297000F9818081082E000C990B009719F42062D0
:102980002B831AC03196F983E8830EC0EA85FB8554
:10299000099597FF09C02B81019611F080E201C0D3
:1029A00080E1822B8B8308C02E813F812F5F3F4FB8
:1029B0003F832E83992702C08FEF9FEFDF91CF9146
:1029C00008950F931F93CF93DF93FB01238121FD84
:1029D00003C08FEF9FEF2CC022FF16C046815781A6
:1029E000248135814217530744F4A081B1819D01B0
:1029F0002F5F3F4F318320838C93268137812F5F58
:102A00003F4F3783268314C08B01EC01FB01008408
:102A1000F185E02D0995892BE1F6D80116968D9167
:102A20009C911797019617969C938E931697CE01BB
:102A3000DF91CF911F910F910895FB01238120FF1A
:102A400012C026FD10C08F3F3FEF930761F08283D5
:102A50002F7D2064238326813781215031093783DC
:102A60002683992708958FEF9FEF0895FA01AA27EB
:102A7000283051F1203181F1E8946F936E7F6E5FC1
:102A80007F4F8F4F9F4FAF4FB1E03ED0B4E03CD06F
:102A9000670F781F891F9A1FA11D680F791F8A1F52
:102AA000911DA11D6A0F711D811D911DA11D20D0B9
:102AB00009F468943F912AE0269F11243019305D73
:102AC0003193DEF6CF010895462F4770405D419364
:102AD000B3E00FD0C9F7F6CF462F4F70405D4A33B1
:102AE00018F0495D31FD4052419302D0A9F7EACF79
:102AF000B4E0A6959795879577956795BA95C9F7A8
:102B000000976105710508959B01AC010A2E06949A
:102B10005795479537952795BA95C9F7620F731F53
:102B2000841F951FA01D0895992788270895F8945C
:022B3000FFCFD5
:102B3200FF01010000000200000000B905000000D2
:102B4200000430759CFF06FF0AFA48656C6C6F2022
:102B5200776F726C6400472D434F44452073656C58
:102B62006563746564004850474C2073656C656307
:102B7200746564004750474C2073656C65637465E7
:102B820064004D65646961206C6F61646564004D29
:102B92006564696120756E6C6F6164656400486F7D
:102BA2006D696E672063617272696167652E2E2E90
:102BB200004C6F636174696F6E20302C3020736536
:102BC200740043757474657220646F776E00437588
:102BD20074746572207570005072657373757265D6
:102BE2003A2025640053706565643A2025640046E6
:102BF200726565637574414C0002060A090818285B
:0A2C0200242060A09080818242002F
:00000001FF
